{
  "contractName": "CryptoKittens",
  "abi": [
    {
      "inputs": [
        {
          "internalType": "string",
          "name": "_name",
          "type": "string"
        },
        {
          "internalType": "string",
          "name": "_symbol",
          "type": "string"
        },
        {
          "internalType": "string",
          "name": "_tokenBaseURI",
          "type": "string"
        }
      ],
      "stateMutability": "nonpayable",
      "type": "constructor"
    },
    {
      "anonymous": false,
      "inputs": [
        {
          "indexed": true,
          "internalType": "address",
          "name": "_owner",
          "type": "address"
        },
        {
          "indexed": true,
          "internalType": "address",
          "name": "_approved",
          "type": "address"
        },
        {
          "indexed": true,
          "internalType": "uint256",
          "name": "_tokenId",
          "type": "uint256"
        }
      ],
      "name": "Approval",
      "type": "event"
    },
    {
      "anonymous": false,
      "inputs": [
        {
          "indexed": true,
          "internalType": "address",
          "name": "_owner",
          "type": "address"
        },
        {
          "indexed": true,
          "internalType": "address",
          "name": "_operator",
          "type": "address"
        },
        {
          "indexed": false,
          "internalType": "bool",
          "name": "_approved",
          "type": "bool"
        }
      ],
      "name": "ApprovalForAll",
      "type": "event"
    },
    {
      "anonymous": false,
      "inputs": [
        {
          "indexed": true,
          "internalType": "address",
          "name": "_from",
          "type": "address"
        },
        {
          "indexed": true,
          "internalType": "address",
          "name": "_to",
          "type": "address"
        },
        {
          "indexed": true,
          "internalType": "uint256",
          "name": "_tokenId",
          "type": "uint256"
        }
      ],
      "name": "Transfer",
      "type": "event"
    },
    {
      "inputs": [],
      "name": "_admin",
      "outputs": [
        {
          "internalType": "address",
          "name": "",
          "type": "address"
        }
      ],
      "stateMutability": "view",
      "type": "function",
      "constant": true
    },
    {
      "inputs": [
        {
          "internalType": "uint256",
          "name": "",
          "type": "uint256"
        }
      ],
      "name": "_kitties",
      "outputs": [
        {
          "internalType": "uint256",
          "name": "id",
          "type": "uint256"
        },
        {
          "internalType": "uint256",
          "name": "generation",
          "type": "uint256"
        },
        {
          "internalType": "uint256",
          "name": "geneA",
          "type": "uint256"
        },
        {
          "internalType": "uint256",
          "name": "geneB",
          "type": "uint256"
        }
      ],
      "stateMutability": "view",
      "type": "function",
      "constant": true
    },
    {
      "inputs": [],
      "name": "admin",
      "outputs": [
        {
          "internalType": "address",
          "name": "",
          "type": "address"
        }
      ],
      "stateMutability": "view",
      "type": "function",
      "constant": true
    },
    {
      "inputs": [
        {
          "internalType": "address",
          "name": "_approved",
          "type": "address"
        },
        {
          "internalType": "uint256",
          "name": "_tokenId",
          "type": "uint256"
        }
      ],
      "name": "approve",
      "outputs": [],
      "stateMutability": "payable",
      "type": "function",
      "payable": true
    },
    {
      "inputs": [
        {
          "internalType": "address",
          "name": "_owner",
          "type": "address"
        }
      ],
      "name": "balanceOf",
      "outputs": [
        {
          "internalType": "uint256",
          "name": "",
          "type": "uint256"
        }
      ],
      "stateMutability": "view",
      "type": "function",
      "constant": true
    },
    {
      "inputs": [],
      "name": "baseURI",
      "outputs": [
        {
          "internalType": "string",
          "name": "",
          "type": "string"
        }
      ],
      "stateMutability": "view",
      "type": "function",
      "constant": true
    },
    {
      "inputs": [
        {
          "internalType": "uint256",
          "name": "_tokenId",
          "type": "uint256"
        }
      ],
      "name": "getApproved",
      "outputs": [
        {
          "internalType": "address",
          "name": "",
          "type": "address"
        }
      ],
      "stateMutability": "view",
      "type": "function",
      "constant": true
    },
    {
      "inputs": [
        {
          "internalType": "address",
          "name": "_owner",
          "type": "address"
        },
        {
          "internalType": "address",
          "name": "_operator",
          "type": "address"
        }
      ],
      "name": "isApprovedForAll",
      "outputs": [
        {
          "internalType": "bool",
          "name": "",
          "type": "bool"
        }
      ],
      "stateMutability": "view",
      "type": "function",
      "constant": true
    },
    {
      "inputs": [],
      "name": "name",
      "outputs": [
        {
          "internalType": "string",
          "name": "",
          "type": "string"
        }
      ],
      "stateMutability": "view",
      "type": "function",
      "constant": true
    },
    {
      "inputs": [],
      "name": "nextId",
      "outputs": [
        {
          "internalType": "uint256",
          "name": "",
          "type": "uint256"
        }
      ],
      "stateMutability": "view",
      "type": "function",
      "constant": true
    },
    {
      "inputs": [
        {
          "internalType": "uint256",
          "name": "_tokenId",
          "type": "uint256"
        }
      ],
      "name": "ownerOf",
      "outputs": [
        {
          "internalType": "address",
          "name": "",
          "type": "address"
        }
      ],
      "stateMutability": "view",
      "type": "function",
      "constant": true
    },
    {
      "inputs": [
        {
          "internalType": "address",
          "name": "_from",
          "type": "address"
        },
        {
          "internalType": "address",
          "name": "_to",
          "type": "address"
        },
        {
          "internalType": "uint256",
          "name": "_tokenId",
          "type": "uint256"
        }
      ],
      "name": "safeTransferFrom",
      "outputs": [],
      "stateMutability": "payable",
      "type": "function",
      "payable": true
    },
    {
      "inputs": [
        {
          "internalType": "address",
          "name": "_from",
          "type": "address"
        },
        {
          "internalType": "address",
          "name": "_to",
          "type": "address"
        },
        {
          "internalType": "uint256",
          "name": "_tokenId",
          "type": "uint256"
        },
        {
          "internalType": "bytes",
          "name": "data",
          "type": "bytes"
        }
      ],
      "name": "safeTransferFrom",
      "outputs": [],
      "stateMutability": "payable",
      "type": "function",
      "payable": true
    },
    {
      "inputs": [
        {
          "internalType": "address",
          "name": "_operator",
          "type": "address"
        },
        {
          "internalType": "bool",
          "name": "_approved",
          "type": "bool"
        }
      ],
      "name": "setApprovalForAll",
      "outputs": [],
      "stateMutability": "nonpayable",
      "type": "function"
    },
    {
      "inputs": [],
      "name": "symbol",
      "outputs": [
        {
          "internalType": "string",
          "name": "",
          "type": "string"
        }
      ],
      "stateMutability": "view",
      "type": "function",
      "constant": true
    },
    {
      "inputs": [],
      "name": "tokenBaseURI",
      "outputs": [
        {
          "internalType": "string",
          "name": "",
          "type": "string"
        }
      ],
      "stateMutability": "view",
      "type": "function",
      "constant": true
    },
    {
      "inputs": [
        {
          "internalType": "uint256",
          "name": "_tokenId",
          "type": "uint256"
        }
      ],
      "name": "tokenURI",
      "outputs": [
        {
          "internalType": "string",
          "name": "",
          "type": "string"
        }
      ],
      "stateMutability": "view",
      "type": "function",
      "constant": true
    },
    {
      "inputs": [
        {
          "internalType": "address",
          "name": "_from",
          "type": "address"
        },
        {
          "internalType": "address",
          "name": "_to",
          "type": "address"
        },
        {
          "internalType": "uint256",
          "name": "_tokenId",
          "type": "uint256"
        }
      ],
      "name": "transferFrom",
      "outputs": [],
      "stateMutability": "payable",
      "type": "function",
      "payable": true
    },
    {
      "inputs": [],
      "name": "mint",
      "outputs": [],
      "stateMutability": "nonpayable",
      "type": "function"
    },
    {
      "inputs": [
        {
          "internalType": "uint256",
          "name": "kittyId1",
          "type": "uint256"
        },
        {
          "internalType": "uint256",
          "name": "kittyId2",
          "type": "uint256"
        }
      ],
      "name": "breed",
      "outputs": [],
      "stateMutability": "nonpayable",
      "type": "function"
    },
    {
      "inputs": [
        {
          "internalType": "address",
          "name": "owner",
          "type": "address"
        }
      ],
      "name": "getAllKittiesOf",
      "outputs": [
        {
          "components": [
            {
              "internalType": "uint256",
              "name": "id",
              "type": "uint256"
            },
            {
              "internalType": "uint256",
              "name": "generation",
              "type": "uint256"
            },
            {
              "internalType": "uint256",
              "name": "geneA",
              "type": "uint256"
            },
            {
              "internalType": "uint256",
              "name": "geneB",
              "type": "uint256"
            }
          ],
          "internalType": "struct CryptoKittens.Kitty[]",
          "name": "",
          "type": "tuple[]"
        }
      ],
      "stateMutability": "view",
      "type": "function",
      "constant": true
    },
    {
      "inputs": [],
      "name": "getAllKitties",
      "outputs": [
        {
          "components": [
            {
              "internalType": "uint256",
              "name": "id",
              "type": "uint256"
            },
            {
              "internalType": "uint256",
              "name": "generation",
              "type": "uint256"
            },
            {
              "internalType": "uint256",
              "name": "geneA",
              "type": "uint256"
            },
            {
              "internalType": "uint256",
              "name": "geneB",
              "type": "uint256"
            }
          ],
          "internalType": "struct CryptoKittens.Kitty[]",
          "name": "",
          "type": "tuple[]"
        }
      ],
      "stateMutability": "view",
      "type": "function",
      "constant": true
    }
  ],
  "bytecode": "0x60806040523480156200001157600080fd5b50604051620031ca380380620031ca833981810160405281019062000037919062000379565b8282828260009080519060200190620000529291906200012c565b5081600190805190602001906200006b9291906200012c565b508060039080519060200190620000849291906200012c565b5033600260006101000a81548173ffffffffffffffffffffffffffffffffffffffff021916908373ffffffffffffffffffffffffffffffffffffffff16021790555050505033600860006101000a81548173ffffffffffffffffffffffffffffffffffffffff021916908373ffffffffffffffffffffffffffffffffffffffff16021790555080600a9080519060200190620001229291906200012c565b5050505062000497565b8280546200013a9062000461565b90600052602060002090601f0160209004810192826200015e5760008555620001aa565b82601f106200017957805160ff1916838001178555620001aa565b82800160010185558215620001aa579182015b82811115620001a95782518255916020019190600101906200018c565b5b509050620001b99190620001bd565b5090565b5b80821115620001d8576000816000905550600101620001be565b5090565b6000604051905090565b600080fd5b600080fd5b600080fd5b600080fd5b6000601f19601f8301169050919050565b7f4e487b7100000000000000000000000000000000000000000000000000000000600052604160045260246000fd5b6200024582620001fa565b810181811067ffffffffffffffff821117156200026757620002666200020b565b5b80604052505050565b60006200027c620001dc565b90506200028a82826200023a565b919050565b600067ffffffffffffffff821115620002ad57620002ac6200020b565b5b620002b882620001fa565b9050602081019050919050565b60005b83811015620002e5578082015181840152602081019050620002c8565b83811115620002f5576000848401525b50505050565b6000620003126200030c846200028f565b62000270565b905082815260208101848484011115620003315762000330620001f5565b5b6200033e848285620002c5565b509392505050565b600082601f8301126200035e576200035d620001f0565b5b815162000370848260208601620002fb565b91505092915050565b600080600060608486031215620003955762000394620001e6565b5b600084015167ffffffffffffffff811115620003b657620003b5620001eb565b5b620003c48682870162000346565b935050602084015167ffffffffffffffff811115620003e857620003e7620001eb565b5b620003f68682870162000346565b925050604084015167ffffffffffffffff8111156200041a5762000419620001eb565b5b620004288682870162000346565b9150509250925092565b7f4e487b7100000000000000000000000000000000000000000000000000000000600052602260045260246000fd5b600060028204905060018216806200047a57607f821691505b6020821081141562000491576200049062000432565b5b50919050565b612d2380620004a76000396000f3fe6080604052600436106101355760003560e01c806369491ed4116100ab578063a22cb4651161006f578063a22cb46514610406578063b88d4fde1461042f578063c87b56dd1461044b578063d9ecad7b14610488578063e985e9c5146104b1578063f851a440146104ee57610135565b806369491ed4146103085780636c0360eb1461033357806370a082311461035e578063822d27e51461039b57806395d89b41146103db57610135565b80631249c58b116100fd5780631249c58b1461022657806323b872dd1461023d57806342842e0e146102595780634e99b8001461027557806361b8ce8c146102a05780636352211e146102cb57610135565b806301bc45c91461013a57806306fdde0314610165578063081812fc14610190578063095ea7b3146101cd5780630fb14c6f146101e9575b600080fd5b34801561014657600080fd5b5061014f610519565b60405161015c9190611c10565b60405180910390f35b34801561017157600080fd5b5061017a61053f565b6040516101879190611cc4565b60405180910390f35b34801561019c57600080fd5b506101b760048036038101906101b29190611d26565b6105d1565b6040516101c49190611c10565b60405180910390f35b6101e760048036038101906101e29190611d7f565b61060e565b005b3480156101f557600080fd5b50610210600480360381019061020b9190611dbf565b610766565b60405161021d9190611eff565b60405180910390f35b34801561023257600080fd5b5061023b6108fc565b005b61025760048036038101906102529190611f21565b610a98565b005b610273600480360381019061026e9190611f21565b610aa8565b005b34801561028157600080fd5b5061028a610ac8565b6040516102979190611cc4565b60405180910390f35b3480156102ac57600080fd5b506102b5610b56565b6040516102c29190611f83565b60405180910390f35b3480156102d757600080fd5b506102f260048036038101906102ed9190611d26565b610b5c565b6040516102ff9190611c10565b60405180910390f35b34801561031457600080fd5b5061031d610c0e565b60405161032a9190611eff565b60405180910390f35b34801561033f57600080fd5b50610348610cf5565b6040516103559190611cc4565b60405180910390f35b34801561036a57600080fd5b5061038560048036038101906103809190611dbf565b610d87565b6040516103929190611f83565b60405180910390f35b3480156103a757600080fd5b506103c260048036038101906103bd9190611d26565b610e3f565b6040516103d29493929190611f9e565b60405180910390f35b3480156103e757600080fd5b506103f0610e6f565b6040516103fd9190611cc4565b60405180910390f35b34801561041257600080fd5b5061042d6004803603810190610428919061201b565b610f01565b005b610449600480360381019061044491906120c0565b61106d565b005b34801561045757600080fd5b50610472600480360381019061046d9190611d26565b6110c4565b60405161047f9190611cc4565b60405180910390f35b34801561049457600080fd5b506104af60048036038101906104aa9190612148565b611163565b005b3480156104bd57600080fd5b506104d860048036038101906104d39190612188565b6113a0565b6040516104e591906121d7565b60405180910390f35b3480156104fa57600080fd5b50610503611434565b6040516105109190611c10565b60405180910390f35b600860009054906101000a900473ffffffffffffffffffffffffffffffffffffffff1681565b60606000805461054e90612221565b80601f016020809104026020016040519081016040528092919081815260200182805461057a90612221565b80156105c75780601f1061059c576101008083540402835291602001916105c7565b820191906000526020600020905b8154815290600101906020018083116105aa57829003601f168201915b5050505050905090565b60006006600083815260200190815260200160002060009054906101000a900473ffffffffffffffffffffffffffffffffffffffff169050919050565b60006005600083815260200190815260200160002060009054906101000a900473ffffffffffffffffffffffffffffffffffffffff1690508073ffffffffffffffffffffffffffffffffffffffff163373ffffffffffffffffffffffffffffffffffffffff16146106b4576040517f08c379a00000000000000000000000000000000000000000000000000000000081526004016106ab906122c5565b60405180910390fd5b826006600084815260200190815260200160002060006101000a81548173ffffffffffffffffffffffffffffffffffffffff021916908373ffffffffffffffffffffffffffffffffffffffff160217905550818373ffffffffffffffffffffffffffffffffffffffff163373ffffffffffffffffffffffffffffffffffffffff167f8c5be1e5ebec7d5bd14f71427d1e84f3dd0314c0f7b2291e5b200ac8c7c3b92560405160405180910390a4505050565b6060600080600090505b6009548110156107d8578373ffffffffffffffffffffffffffffffffffffffff1661079a82610b5c565b73ffffffffffffffffffffffffffffffffffffffff1614156107c55781806107c190612314565b9250505b80806107d090612314565b915050610770565b5060008167ffffffffffffffff8111156107f5576107f461235d565b5b60405190808252806020026020018201604052801561082e57816020015b61081b611ba7565b8152602001906001900390816108135790505b50905060005b81518110156108f1578473ffffffffffffffffffffffffffffffffffffffff1661085d82610b5c565b73ffffffffffffffffffffffffffffffffffffffff1614156108de57600b60008281526020019081526020016000206040518060800160405290816000820154815260200160018201548152602001600282015481526020016003820154815250508282815181106108d2576108d161238c565b5b60200260200101819052505b80806108e990612314565b915050610834565b508092505050919050565b600860009054906101000a900473ffffffffffffffffffffffffffffffffffffffff1673ffffffffffffffffffffffffffffffffffffffff163373ffffffffffffffffffffffffffffffffffffffff161461098c576040517f08c379a000000000000000000000000000000000000000000000000000000000815260040161098390612407565b60405180910390fd5b600073ffffffffffffffffffffffffffffffffffffffff163373ffffffffffffffffffffffffffffffffffffffff1614156109fc576040517f08c379a00000000000000000000000000000000000000000000000000000000081526004016109f390612473565b60405180910390fd5b6040518060800160405280600954815260200160018152602001610a20600a61145a565b8152602001610a2f600a61145a565b815250600b6000600954815260200190815260200160002060008201518160000155602082015181600101556040820151816002015560608201518160030155905050610a7e6009543361149a565b60096000815480929190610a9190612314565b9190505550565b610aa383838361165a565b505050565b610ac3838383604051806020016040528060008152506119d4565b505050565b600a8054610ad590612221565b80601f0160208091040260200160405190810160405280929190818152602001828054610b0190612221565b8015610b4e5780601f10610b2357610100808354040283529160200191610b4e565b820191906000526020600020905b815481529060010190602001808311610b3157829003601f168201915b505050505081565b60095481565b6000806005600084815260200190815260200160002060009054906101000a900473ffffffffffffffffffffffffffffffffffffffff169050600073ffffffffffffffffffffffffffffffffffffffff168173ffffffffffffffffffffffffffffffffffffffff161415610c05576040517f08c379a0000000000000000000000000000000000000000000000000000000008152600401610bfc90612505565b60405180910390fd5b80915050919050565b6060600060095467ffffffffffffffff811115610c2e57610c2d61235d565b5b604051908082528060200260200182016040528015610c6757816020015b610c54611ba7565b815260200190600190039081610c4c5790505b50905060005b8151811015610ced57600b6000828152602001908152602001600020604051806080016040529081600082015481526020016001820154815260200160028201548152602001600382015481525050828281518110610ccf57610cce61238c565b5b60200260200101819052508080610ce590612314565b915050610c6d565b508091505090565b606060038054610d0490612221565b80601f0160208091040260200160405190810160405280929190818152602001828054610d3090612221565b8015610d7d5780601f10610d5257610100808354040283529160200191610d7d565b820191906000526020600020905b815481529060010190602001808311610d6057829003601f168201915b5050505050905090565b60008073ffffffffffffffffffffffffffffffffffffffff168273ffffffffffffffffffffffffffffffffffffffff161415610df8576040517f08c379a0000000000000000000000000000000000000000000000000000000008152600401610def90612597565b60405180910390fd5b600460008373ffffffffffffffffffffffffffffffffffffffff1673ffffffffffffffffffffffffffffffffffffffff168152602001908152602001600020549050919050565b600b6020528060005260406000206000915090508060000154908060010154908060020154908060030154905084565b606060018054610e7e90612221565b80601f0160208091040260200160405190810160405280929190818152602001828054610eaa90612221565b8015610ef75780601f10610ecc57610100808354040283529160200191610ef7565b820191906000526020600020905b815481529060010190602001808311610eda57829003601f168201915b5050505050905090565b8173ffffffffffffffffffffffffffffffffffffffff163373ffffffffffffffffffffffffffffffffffffffff161415610f70576040517f08c379a0000000000000000000000000000000000000000000000000000000008152600401610f6790612629565b60405180910390fd5b80600760003373ffffffffffffffffffffffffffffffffffffffff1673ffffffffffffffffffffffffffffffffffffffff16815260200190815260200160002060008473ffffffffffffffffffffffffffffffffffffffff1673ffffffffffffffffffffffffffffffffffffffff16815260200190815260200160002060006101000a81548160ff0219169083151502179055508173ffffffffffffffffffffffffffffffffffffffff163373ffffffffffffffffffffffffffffffffffffffff167f17307eab39ab6107e8899845ad3d59bd9653f200f220920489ca2b5937696c318360405161106191906121d7565b60405180910390a35050565b6110bd85858585858080601f016020809104026020016040519081016040528093929190818152602001838380828437600081840152601f19601f820116905080830192505050505050506119d4565b5050505050565b60606110cf82611b18565b61110e576040517f08c379a0000000000000000000000000000000000000000000000000000000008152600401611105906126bb565b60405180910390fd5b6000611118610cf5565b90506000815111611138576040518060200160405280600081525061115b565b808360405160200161114b929190612784565b6040516020818303038152906040525b915050919050565b60095482108015611175575060095481105b6111b4576040517f08c379a00000000000000000000000000000000000000000000000000000000081526004016111ab90612803565b60405180910390fd5b6000600b600084815260200190815260200160002090506000600b600084815260200190815260200160002090503373ffffffffffffffffffffffffffffffffffffffff1661120285610b5c565b73ffffffffffffffffffffffffffffffffffffffff1614801561125857503373ffffffffffffffffffffffffffffffffffffffff1661124084610b5c565b73ffffffffffffffffffffffffffffffffffffffff16145b611297576040517f08c379a000000000000000000000000000000000000000000000000000000000815260040161128e90612895565b60405180910390fd5b600081600101548360010154116112b25781600101546112b8565b82600101545b9050600060016112c8600461145a565b116112d75782600201546112dd565b83600201545b9050600060016112ed600461145a565b116112fc578360030154611302565b84600301545b90506040518060800160405280600954815260200160018561132491906128b5565b815260200183815260200182815250600b600060095481526020019081526020016000206000820151816000015560208201518160010155604082015181600201556060820151816003015590505061137f6009543361149a565b6009600081548092919061139290612314565b919050555050505050505050565b6000600760008473ffffffffffffffffffffffffffffffffffffffff1673ffffffffffffffffffffffffffffffffffffffff16815260200190815260200160002060008373ffffffffffffffffffffffffffffffffffffffff1673ffffffffffffffffffffffffffffffffffffffff16815260200190815260200160002060009054906101000a900460ff16905092915050565b600260009054906101000a900473ffffffffffffffffffffffffffffffffffffffff1681565b600081424460405160200161147092919061290b565b6040516020818303038152906040528051906020012060001c6114939190612966565b9050919050565b600073ffffffffffffffffffffffffffffffffffffffff168173ffffffffffffffffffffffffffffffffffffffff16141561150a576040517f08c379a000000000000000000000000000000000000000000000000000000000815260040161150190612473565b60405180910390fd5b61151382611b18565b15611553576040517f08c379a000000000000000000000000000000000000000000000000000000000815260040161154a906129e3565b60405180910390fd5b600460008273ffffffffffffffffffffffffffffffffffffffff1673ffffffffffffffffffffffffffffffffffffffff16815260200190815260200160002060008154809291906115a390612314565b9190505550806005600084815260200190815260200160002060006101000a81548173ffffffffffffffffffffffffffffffffffffffff021916908373ffffffffffffffffffffffffffffffffffffffff160217905550818173ffffffffffffffffffffffffffffffffffffffff16600073ffffffffffffffffffffffffffffffffffffffff167fddf252ad1be2c89b69c2b068fc378daa952ba7f163c4a11628f55a4df523b3ef60405160405180910390a45050565b8060006005600083815260200190815260200160002060009054906101000a900473ffffffffffffffffffffffffffffffffffffffff1690503373ffffffffffffffffffffffffffffffffffffffff168173ffffffffffffffffffffffffffffffffffffffff16148061172b57503373ffffffffffffffffffffffffffffffffffffffff166006600084815260200190815260200160002060009054906101000a900473ffffffffffffffffffffffffffffffffffffffff1673ffffffffffffffffffffffffffffffffffffffff16145b806117c3575060011515600760008373ffffffffffffffffffffffffffffffffffffffff1673ffffffffffffffffffffffffffffffffffffffff16815260200190815260200160002060003373ffffffffffffffffffffffffffffffffffffffff1673ffffffffffffffffffffffffffffffffffffffff16815260200190815260200160002060009054906101000a900460ff161515145b611802576040517f08c379a00000000000000000000000000000000000000000000000000000000081526004016117f990612a4f565b60405180910390fd5b600073ffffffffffffffffffffffffffffffffffffffff168473ffffffffffffffffffffffffffffffffffffffff161415611872576040517f08c379a000000000000000000000000000000000000000000000000000000000815260040161186990612ae1565b60405180910390fd5b6001600460008773ffffffffffffffffffffffffffffffffffffffff1673ffffffffffffffffffffffffffffffffffffffff16815260200190815260200160002060008282546118c29190612b01565b925050819055506001600460008673ffffffffffffffffffffffffffffffffffffffff1673ffffffffffffffffffffffffffffffffffffffff168152602001908152602001600020600082825461191991906128b5565b92505081905550836005600085815260200190815260200160002060006101000a81548173ffffffffffffffffffffffffffffffffffffffff021916908373ffffffffffffffffffffffffffffffffffffffff160217905550828473ffffffffffffffffffffffffffffffffffffffff168673ffffffffffffffffffffffffffffffffffffffff167fddf252ad1be2c89b69c2b068fc378daa952ba7f163c4a11628f55a4df523b3ef60405160405180910390a45050505050565b6119df84848461165a565b6119fe8373ffffffffffffffffffffffffffffffffffffffff16611b84565b15611b125760008373ffffffffffffffffffffffffffffffffffffffff1663150b7a02338786866040518563ffffffff1660e01b8152600401611a449493929190612b8a565b6020604051808303816000875af1158015611a63573d6000803e3d6000fd5b505050506040513d601f19601f82011682018060405250810190611a879190612c2e565b905063150b7a0260e01b7bffffffffffffffffffffffffffffffffffffffffffffffffffffffff1916817bffffffffffffffffffffffffffffffffffffffffffffffffffffffff191614611b10576040517f08c379a0000000000000000000000000000000000000000000000000000000008152600401611b0790612ccd565b60405180910390fd5b505b50505050565b60008073ffffffffffffffffffffffffffffffffffffffff166005600084815260200190815260200160002060009054906101000a900473ffffffffffffffffffffffffffffffffffffffff1673ffffffffffffffffffffffffffffffffffffffff1614159050919050565b6000808273ffffffffffffffffffffffffffffffffffffffff163b119050919050565b6040518060800160405280600081526020016000815260200160008152602001600081525090565b600073ffffffffffffffffffffffffffffffffffffffff82169050919050565b6000611bfa82611bcf565b9050919050565b611c0a81611bef565b82525050565b6000602082019050611c256000830184611c01565b92915050565b600081519050919050565b600082825260208201905092915050565b60005b83811015611c65578082015181840152602081019050611c4a565b83811115611c74576000848401525b50505050565b6000601f19601f8301169050919050565b6000611c9682611c2b565b611ca08185611c36565b9350611cb0818560208601611c47565b611cb981611c7a565b840191505092915050565b60006020820190508181036000830152611cde8184611c8b565b905092915050565b600080fd5b600080fd5b6000819050919050565b611d0381611cf0565b8114611d0e57600080fd5b50565b600081359050611d2081611cfa565b92915050565b600060208284031215611d3c57611d3b611ce6565b5b6000611d4a84828501611d11565b91505092915050565b611d5c81611bef565b8114611d6757600080fd5b50565b600081359050611d7981611d53565b92915050565b60008060408385031215611d9657611d95611ce6565b5b6000611da485828601611d6a565b9250506020611db585828601611d11565b9150509250929050565b600060208284031215611dd557611dd4611ce6565b5b6000611de384828501611d6a565b91505092915050565b600081519050919050565b600082825260208201905092915050565b6000819050602082019050919050565b611e2181611cf0565b82525050565b608082016000820151611e3d6000850182611e18565b506020820151611e506020850182611e18565b506040820151611e636040850182611e18565b506060820151611e766060850182611e18565b50505050565b6000611e888383611e27565b60808301905092915050565b6000602082019050919050565b6000611eac82611dec565b611eb68185611df7565b9350611ec183611e08565b8060005b83811015611ef2578151611ed98882611e7c565b9750611ee483611e94565b925050600181019050611ec5565b5085935050505092915050565b60006020820190508181036000830152611f198184611ea1565b905092915050565b600080600060608486031215611f3a57611f39611ce6565b5b6000611f4886828701611d6a565b9350506020611f5986828701611d6a565b9250506040611f6a86828701611d11565b9150509250925092565b611f7d81611cf0565b82525050565b6000602082019050611f986000830184611f74565b92915050565b6000608082019050611fb36000830187611f74565b611fc06020830186611f74565b611fcd6040830185611f74565b611fda6060830184611f74565b95945050505050565b60008115159050919050565b611ff881611fe3565b811461200357600080fd5b50565b60008135905061201581611fef565b92915050565b6000806040838503121561203257612031611ce6565b5b600061204085828601611d6a565b925050602061205185828601612006565b9150509250929050565b600080fd5b600080fd5b600080fd5b60008083601f8401126120805761207f61205b565b5b8235905067ffffffffffffffff81111561209d5761209c612060565b5b6020830191508360018202830111156120b9576120b8612065565b5b9250929050565b6000806000806000608086880312156120dc576120db611ce6565b5b60006120ea88828901611d6a565b95505060206120fb88828901611d6a565b945050604061210c88828901611d11565b935050606086013567ffffffffffffffff81111561212d5761212c611ceb565b5b6121398882890161206a565b92509250509295509295909350565b6000806040838503121561215f5761215e611ce6565b5b600061216d85828601611d11565b925050602061217e85828601611d11565b9150509250929050565b6000806040838503121561219f5761219e611ce6565b5b60006121ad85828601611d6a565b92505060206121be85828601611d6a565b9150509250929050565b6121d181611fe3565b82525050565b60006020820190506121ec60008301846121c8565b92915050565b7f4e487b7100000000000000000000000000000000000000000000000000000000600052602260045260246000fd5b6000600282049050600182168061223957607f821691505b6020821081141561224d5761224c6121f2565b5b50919050565b7f6f6e6c79206f776e6572206f66207468697320746f6b656e2063616e2061707060008201527f726f766500000000000000000000000000000000000000000000000000000000602082015250565b60006122af602483611c36565b91506122ba82612253565b604082019050919050565b600060208201905081810360008301526122de816122a2565b9050919050565b7f4e487b7100000000000000000000000000000000000000000000000000000000600052601160045260246000fd5b600061231f82611cf0565b91507fffffffffffffffffffffffffffffffffffffffffffffffffffffffffffffffff821415612352576123516122e5565b5b600182019050919050565b7f4e487b7100000000000000000000000000000000000000000000000000000000600052604160045260246000fd5b7f4e487b7100000000000000000000000000000000000000000000000000000000600052603260045260246000fd5b7f6f6e6c792061646d696e2063616e206d696e7400000000000000000000000000600082015250565b60006123f1601383611c36565b91506123fc826123bb565b602082019050919050565b60006020820190508181036000830152612420816123e4565b9050919050565b7f5a65726f2061646472657373206d696e74696e67206e6f7420616c6c6f776564600082015250565b600061245d602083611c36565b915061246882612427565b602082019050919050565b6000602082019050818103600083015261248c81612450565b9050919050565b7f4552433732313a206f776e657220717565727920666f72206e6f6e657869737460008201527f656e7420746f6b656e0000000000000000000000000000000000000000000000602082015250565b60006124ef602983611c36565b91506124fa82612493565b604082019050919050565b6000602082019050818103600083015261251e816124e2565b9050919050565b7f4552433732313a2062616c616e636520717565727920666f7220746865207a6560008201527f726f206164647265737300000000000000000000000000000000000000000000602082015250565b6000612581602a83611c36565b915061258c82612525565b604082019050919050565b600060208201905081810360008301526125b081612574565b9050919050565b7f43616e206e6f7420736574206f776e2061646472657373206173206f7065726160008201527f746f720000000000000000000000000000000000000000000000000000000000602082015250565b6000612613602383611c36565b915061261e826125b7565b604082019050919050565b6000602082019050818103600083015261264281612606565b9050919050565b7f4552433732314d657461646174613a2055524920717565727920666f72206e6f60008201527f6e6578697374656e7420746f6b656e0000000000000000000000000000000000602082015250565b60006126a5602f83611c36565b91506126b082612649565b604082019050919050565b600060208201905081810360008301526126d481612698565b9050919050565b600081905092915050565b60006126f182611c2b565b6126fb81856126db565b935061270b818560208601611c47565b80840191505092915050565b7f2f00000000000000000000000000000000000000000000000000000000000000600082015250565b600061274d6001836126db565b915061275882612717565b600182019050919050565b6000819050919050565b61277e61277982611cf0565b612763565b82525050565b600061279082856126e6565b915061279b82612740565b91506127a7828461276d565b6020820191508190509392505050565b7f626f746820746865206b697474696573206d7573742065786973740000000000600082015250565b60006127ed601b83611c36565b91506127f8826127b7565b602082019050919050565b6000602082019050818103600083015261281c816127e0565b9050919050565b7f6d73672073656e6465722073686f756c64206f776e20626f7468206b6974746960008201527f6573000000000000000000000000000000000000000000000000000000000000602082015250565b600061287f602283611c36565b915061288a82612823565b604082019050919050565b600060208201905081810360008301526128ae81612872565b9050919050565b60006128c082611cf0565b91506128cb83611cf0565b9250827fffffffffffffffffffffffffffffffffffffffffffffffffffffffffffffffff03821115612900576128ff6122e5565b5b828201905092915050565b6000612917828561276d565b602082019150612927828461276d565b6020820191508190509392505050565b7f4e487b7100000000000000000000000000000000000000000000000000000000600052601260045260246000fd5b600061297182611cf0565b915061297c83611cf0565b92508261298c5761298b612937565b5b828206905092915050565b7f4552433732313a20746f6b656e20616c7265616479206d696e74656400000000600082015250565b60006129cd601c83611c36565b91506129d882612997565b602082019050919050565b600060208201905081810360008301526129fc816129c0565b9050919050565b7f4e6f7420617574686f72697a656420746f207472616e7366657220546f6b656e600082015250565b6000612a39602083611c36565b9150612a4482612a03565b602082019050919050565b60006020820190508181036000830152612a6881612a2c565b9050919050565b7f4552433732313a207472616e7366657220746f20746865207a65726f2061646460008201527f7265737300000000000000000000000000000000000000000000000000000000602082015250565b6000612acb602483611c36565b9150612ad682612a6f565b604082019050919050565b60006020820190508181036000830152612afa81612abe565b9050919050565b6000612b0c82611cf0565b9150612b1783611cf0565b925082821015612b2a57612b296122e5565b5b828203905092915050565b600081519050919050565b600082825260208201905092915050565b6000612b5c82612b35565b612b668185612b40565b9350612b76818560208601611c47565b612b7f81611c7a565b840191505092915050565b6000608082019050612b9f6000830187611c01565b612bac6020830186611c01565b612bb96040830185611f74565b8181036060830152612bcb8184612b51565b905095945050505050565b60007fffffffff0000000000000000000000000000000000000000000000000000000082169050919050565b612c0b81612bd6565b8114612c1657600080fd5b50565b600081519050612c2881612c02565b92915050565b600060208284031215612c4457612c43611ce6565b5b6000612c5284828501612c19565b91505092915050565b7f526563697069656e7420436f6e74726163742063616e206e6f742068616e646c60008201527f652045524337323120546f6b656e730000000000000000000000000000000000602082015250565b6000612cb7602f83611c36565b9150612cc282612c5b565b604082019050919050565b60006020820190508181036000830152612ce681612caa565b905091905056fea2646970667358221220ec7aa04dcfab5fe1a2b81e4fb834ec06f7355d4f8ae7e4ba50762d98571fb09964736f6c634300080a0033",
  "immutableReferences": {},
  "source": "// SPDX-License-Identifier: MIT\npragma solidity ^0.8.0;\nimport {ERC721Token} from './ERC721Token.sol';\n\ncontract CryptoKittens is ERC721Token {\n\n  address public _admin;\n  uint public nextId;\n  string public tokenBaseURI;\n\n  struct Kitty {\n    uint id;\n    uint generation;\n    uint geneA;\n    uint geneB;\n  }\n\n  mapping(uint => Kitty) public _kitties;\n\n  \n  constructor(string memory _name, string memory _symbol, string memory _tokenBaseURI) \n        ERC721Token(_name, _symbol, _tokenBaseURI){\n    _admin = msg.sender;\n    tokenBaseURI = _tokenBaseURI;\n  }\n\n  function mint() external {\n    require(msg.sender == _admin, \"only admin can mint\");\n    require(msg.sender != address(0), \"Zero address minting not allowed\");\n\n    _kitties[nextId] = Kitty(nextId,1,_random(10),_random(10));\n    _mint(nextId, msg.sender);\n    nextId++;\n  }\n\n  function breed(uint kittyId1, uint kittyId2) external {\n    require(kittyId1 < nextId && kittyId2 < nextId, \"both the kitties must exist\");\n    Kitty storage kitty1 = _kitties[kittyId1];\n    Kitty storage kitty2 = _kitties[kittyId2];\n\n    require(ownerOf(kittyId1) == msg.sender && ownerOf(kittyId2) == msg.sender, \"msg sender should own both kitties\");\n    uint maxGen = (kitty1.generation > kitty2.generation) ? kitty1.generation : kitty2.generation;\n    //we want to give a 50% chance that child gene takes 50% of each parent\n    uint _geneA = _random(4) > 1 ? kitty1.geneA : kitty2.geneA;\n    uint _geneB = _random(4) > 1 ? kitty1.geneB : kitty2.geneB;\n    _kitties[nextId] = Kitty(nextId,maxGen+1,_geneA,_geneB);\n    _mint(nextId,msg.sender);\n    nextId++;\n  }\n\n  function _random(uint _max) private view returns(uint){\n    return uint(keccak256(abi.encodePacked(block.timestamp, block.difficulty))) % _max ;\n  }\n \n  function getAllKittiesOf(address owner) external view returns(Kitty[] memory) {\n      uint length;\n      for(uint i = 0; i < nextId; i++) {\n        if(ownerOf(i) == owner) {\n          length++;\n        }\n      }\n      Kitty[] memory kitties = new Kitty[](length);\n      for(uint i = 0; i < kitties.length; i++) {\n        if(ownerOf(i) == owner) {\n          kitties[i] = _kitties[i];\n        }\n      }\n      return kitties;\n  }\n\n  function getAllKitties() external view returns(Kitty[] memory) {\n      Kitty[] memory kitties = new Kitty[](nextId);\n      for(uint i = 0; i < kitties.length; i++) {\n        kitties[i] = _kitties[i];\n      }\n      return kitties;\n    }\n\n}\n",
  "sourcePath": "C:\\Sandip@IBM\\BlockChainDev\\CryptoKitties\\contracts\\CryptoKittens.sol",
  "compiler": {
    "name": "solc",
    "version": "0.8.10+commit.fc410830.Emscripten.clang"
  },
  "schemaVersion": "3.4.3",
  "updatedAt": "2022-04-02T08:35:11.708Z",
  "networkType": "ethereum",
  "devdoc": {
    "kind": "dev",
    "methods": {
      "approve(address,uint256)": {
        "details": "The zero address indicates there is no approved address.  Throws unless `msg.sender` is the current NFT owner, or an authorized  operator of the current owner.",
        "params": {
          "_approved": "The new approved NFT controller",
          "_tokenId": "The NFT to approve"
        }
      },
      "balanceOf(address)": {
        "details": "NFTs assigned to the zero address are considered invalid, and this  function throws for queries about the zero address.",
        "params": {
          "_owner": "An address for whom to query the balance"
        },
        "returns": {
          "_0": "The number of NFTs owned by `_owner`, possibly zero"
        }
      },
      "getApproved(uint256)": {
        "details": "Throws if `_tokenId` is not a valid NFT.",
        "params": {
          "_tokenId": "The NFT to find the approved address for"
        },
        "returns": {
          "_0": "The approved address for this NFT, or the zero address if there is none"
        }
      },
      "isApprovedForAll(address,address)": {
        "params": {
          "_operator": "The address that acts on behalf of the owner",
          "_owner": "The address that owns the NFTs"
        },
        "returns": {
          "_0": "True if `_operator` is an approved operator for `_owner`, false otherwise"
        }
      },
      "ownerOf(uint256)": {
        "details": "NFTs assigned to zero address are considered invalid, and queries  about them do throw.",
        "params": {
          "_tokenId": "The identifier for an NFT"
        },
        "returns": {
          "_0": "The address of the owner of the NFT"
        }
      },
      "safeTransferFrom(address,address,uint256)": {
        "details": "This works identically to the other function with an extra data parameter,  except this function just sets data to \"\".",
        "params": {
          "_from": "The current owner of the NFT",
          "_to": "The new owner",
          "_tokenId": "The NFT to transfer"
        }
      },
      "safeTransferFrom(address,address,uint256,bytes)": {
        "details": "Throws unless `msg.sender` is the current owner, an authorized  operator, or the approved address for this NFT. Throws if `_from` is  not the current owner. Throws if `_to` is the zero address. Throws if  `_tokenId` is not a valid NFT. When transfer is complete, this function  checks if `_to` is a smart contract (code size > 0). If so, it calls  `onERC721Received` on `_to` and throws if the return value is not  `bytes4(keccak256(\"onERC721Received(address,address,uint256,bytes)\"))`.",
        "params": {
          "_from": "The current owner of the NFT",
          "_to": "The new owner",
          "_tokenId": "The NFT to transfer",
          "data": "Additional data with no specified format, sent in call to `_to`"
        }
      },
      "setApprovalForAll(address,bool)": {
        "details": "Emits the ApprovalForAll event. The contract MUST allow  multiple operators per owner.",
        "params": {
          "_approved": "True if the operator is approved, false to revoke approval",
          "_operator": "Address to add to the set of authorized operators"
        }
      },
      "symbol()": {
        "details": "See {IERC721Metadata-symbol}."
      },
      "transferFrom(address,address,uint256)": {
        "details": "Throws unless `msg.sender` is the current owner, an authorized  operator, or the approved address for this NFT. Throws if `_from` is  not the current owner. Throws if `_to` is the zero address. Throws if  `_tokenId` is not a valid NFT.",
        "params": {
          "_from": "The current owner of the NFT",
          "_to": "The new owner",
          "_tokenId": "The NFT to transfer"
        }
      }
    },
    "version": 1
  },
  "userdoc": {
    "kind": "user",
    "methods": {
      "approve(address,uint256)": {
        "notice": "Change or reaffirm the approved address for an NFT"
      },
      "balanceOf(address)": {
        "notice": "Count all NFTs assigned to an owner"
      },
      "getApproved(uint256)": {
        "notice": "Get the approved address for a single NFT"
      },
      "isApprovedForAll(address,address)": {
        "notice": "Query if an address is an authorized operator for another address"
      },
      "ownerOf(uint256)": {
        "notice": "Find the owner of an NFT"
      },
      "safeTransferFrom(address,address,uint256)": {
        "notice": "Transfers the ownership of an NFT from one address to another address"
      },
      "safeTransferFrom(address,address,uint256,bytes)": {
        "notice": "Transfers the ownership of an NFT from one address to another address"
      },
      "setApprovalForAll(address,bool)": {
        "notice": "Enable or disable approval for a third party (\"operator\") to manage  all of `msg.sender`'s assets"
      },
      "transferFrom(address,address,uint256)": {
        "notice": "Transfer ownership of an NFT -- THE CALLER IS RESPONSIBLE  TO CONFIRM THAT `_to` IS CAPABLE OF RECEIVING NFTS OR ELSE  THEY MAY BE PERMANENTLY LOST"
      }
    },
    "version": 1
  }
}