{
  "contractName": "ERC721Token",
  "abi": [
    {
      "inputs": [
        {
          "internalType": "string",
          "name": "name_",
          "type": "string"
        },
        {
          "internalType": "string",
          "name": "symbol_",
          "type": "string"
        },
        {
          "internalType": "string",
          "name": "tokenBaseURI_",
          "type": "string"
        }
      ],
      "stateMutability": "nonpayable",
      "type": "constructor"
    },
    {
      "anonymous": false,
      "inputs": [
        {
          "indexed": true,
          "internalType": "address",
          "name": "_owner",
          "type": "address"
        },
        {
          "indexed": true,
          "internalType": "address",
          "name": "_approved",
          "type": "address"
        },
        {
          "indexed": true,
          "internalType": "uint256",
          "name": "_tokenId",
          "type": "uint256"
        }
      ],
      "name": "Approval",
      "type": "event"
    },
    {
      "anonymous": false,
      "inputs": [
        {
          "indexed": true,
          "internalType": "address",
          "name": "_owner",
          "type": "address"
        },
        {
          "indexed": true,
          "internalType": "address",
          "name": "_operator",
          "type": "address"
        },
        {
          "indexed": false,
          "internalType": "bool",
          "name": "_approved",
          "type": "bool"
        }
      ],
      "name": "ApprovalForAll",
      "type": "event"
    },
    {
      "anonymous": false,
      "inputs": [
        {
          "indexed": true,
          "internalType": "address",
          "name": "_from",
          "type": "address"
        },
        {
          "indexed": true,
          "internalType": "address",
          "name": "_to",
          "type": "address"
        },
        {
          "indexed": true,
          "internalType": "uint256",
          "name": "_tokenId",
          "type": "uint256"
        }
      ],
      "name": "Transfer",
      "type": "event"
    },
    {
      "inputs": [],
      "name": "admin",
      "outputs": [
        {
          "internalType": "address",
          "name": "",
          "type": "address"
        }
      ],
      "stateMutability": "view",
      "type": "function"
    },
    {
      "inputs": [],
      "name": "name",
      "outputs": [
        {
          "internalType": "string",
          "name": "",
          "type": "string"
        }
      ],
      "stateMutability": "view",
      "type": "function"
    },
    {
      "inputs": [],
      "name": "symbol",
      "outputs": [
        {
          "internalType": "string",
          "name": "",
          "type": "string"
        }
      ],
      "stateMutability": "view",
      "type": "function"
    },
    {
      "inputs": [],
      "name": "baseURI",
      "outputs": [
        {
          "internalType": "string",
          "name": "",
          "type": "string"
        }
      ],
      "stateMutability": "view",
      "type": "function"
    },
    {
      "inputs": [
        {
          "internalType": "uint256",
          "name": "_tokenId",
          "type": "uint256"
        }
      ],
      "name": "tokenURI",
      "outputs": [
        {
          "internalType": "string",
          "name": "",
          "type": "string"
        }
      ],
      "stateMutability": "view",
      "type": "function"
    },
    {
      "inputs": [
        {
          "internalType": "address",
          "name": "_owner",
          "type": "address"
        }
      ],
      "name": "balanceOf",
      "outputs": [
        {
          "internalType": "uint256",
          "name": "",
          "type": "uint256"
        }
      ],
      "stateMutability": "view",
      "type": "function"
    },
    {
      "inputs": [
        {
          "internalType": "uint256",
          "name": "_tokenId",
          "type": "uint256"
        }
      ],
      "name": "ownerOf",
      "outputs": [
        {
          "internalType": "address",
          "name": "",
          "type": "address"
        }
      ],
      "stateMutability": "view",
      "type": "function"
    },
    {
      "inputs": [
        {
          "internalType": "address",
          "name": "_approved",
          "type": "address"
        },
        {
          "internalType": "uint256",
          "name": "_tokenId",
          "type": "uint256"
        }
      ],
      "name": "approve",
      "outputs": [],
      "stateMutability": "payable",
      "type": "function"
    },
    {
      "inputs": [
        {
          "internalType": "address",
          "name": "_operator",
          "type": "address"
        },
        {
          "internalType": "bool",
          "name": "_approved",
          "type": "bool"
        }
      ],
      "name": "setApprovalForAll",
      "outputs": [],
      "stateMutability": "nonpayable",
      "type": "function"
    },
    {
      "inputs": [
        {
          "internalType": "address",
          "name": "_owner",
          "type": "address"
        },
        {
          "internalType": "address",
          "name": "_operator",
          "type": "address"
        }
      ],
      "name": "isApprovedForAll",
      "outputs": [
        {
          "internalType": "bool",
          "name": "",
          "type": "bool"
        }
      ],
      "stateMutability": "view",
      "type": "function"
    },
    {
      "inputs": [
        {
          "internalType": "uint256",
          "name": "_tokenId",
          "type": "uint256"
        }
      ],
      "name": "getApproved",
      "outputs": [
        {
          "internalType": "address",
          "name": "",
          "type": "address"
        }
      ],
      "stateMutability": "view",
      "type": "function"
    },
    {
      "inputs": [
        {
          "internalType": "address",
          "name": "_from",
          "type": "address"
        },
        {
          "internalType": "address",
          "name": "_to",
          "type": "address"
        },
        {
          "internalType": "uint256",
          "name": "_tokenId",
          "type": "uint256"
        }
      ],
      "name": "transferFrom",
      "outputs": [],
      "stateMutability": "payable",
      "type": "function"
    },
    {
      "inputs": [
        {
          "internalType": "address",
          "name": "_from",
          "type": "address"
        },
        {
          "internalType": "address",
          "name": "_to",
          "type": "address"
        },
        {
          "internalType": "uint256",
          "name": "_tokenId",
          "type": "uint256"
        }
      ],
      "name": "safeTransferFrom",
      "outputs": [],
      "stateMutability": "payable",
      "type": "function"
    },
    {
      "inputs": [
        {
          "internalType": "address",
          "name": "_from",
          "type": "address"
        },
        {
          "internalType": "address",
          "name": "_to",
          "type": "address"
        },
        {
          "internalType": "uint256",
          "name": "_tokenId",
          "type": "uint256"
        },
        {
          "internalType": "bytes",
          "name": "data",
          "type": "bytes"
        }
      ],
      "name": "safeTransferFrom",
      "outputs": [],
      "stateMutability": "payable",
      "type": "function"
    }
  ],
  "bytecode": "0x60806040523480156200001157600080fd5b506040516200211238038062002112833981810160405281019062000037919062000319565b82600090805190602001906200004f929190620000cc565b50816001908051906020019062000068929190620000cc565b50806003908051906020019062000081929190620000cc565b5033600260006101000a81548173ffffffffffffffffffffffffffffffffffffffff021916908373ffffffffffffffffffffffffffffffffffffffff16021790555050505062000437565b828054620000da9062000401565b90600052602060002090601f016020900481019282620000fe57600085556200014a565b82601f106200011957805160ff19168380011785556200014a565b828001600101855582156200014a579182015b82811115620001495782518255916020019190600101906200012c565b5b5090506200015991906200015d565b5090565b5b80821115620001785760008160009055506001016200015e565b5090565b6000604051905090565b600080fd5b600080fd5b600080fd5b600080fd5b6000601f19601f8301169050919050565b7f4e487b7100000000000000000000000000000000000000000000000000000000600052604160045260246000fd5b620001e5826200019a565b810181811067ffffffffffffffff82111715620002075762000206620001ab565b5b80604052505050565b60006200021c6200017c565b90506200022a8282620001da565b919050565b600067ffffffffffffffff8211156200024d576200024c620001ab565b5b62000258826200019a565b9050602081019050919050565b60005b838110156200028557808201518184015260208101905062000268565b8381111562000295576000848401525b50505050565b6000620002b2620002ac846200022f565b62000210565b905082815260208101848484011115620002d157620002d062000195565b5b620002de84828562000265565b509392505050565b600082601f830112620002fe57620002fd62000190565b5b8151620003108482602086016200029b565b91505092915050565b60008060006060848603121562000335576200033462000186565b5b600084015167ffffffffffffffff8111156200035657620003556200018b565b5b6200036486828701620002e6565b935050602084015167ffffffffffffffff8111156200038857620003876200018b565b5b6200039686828701620002e6565b925050604084015167ffffffffffffffff811115620003ba57620003b96200018b565b5b620003c886828701620002e6565b9150509250925092565b7f4e487b7100000000000000000000000000000000000000000000000000000000600052602260045260246000fd5b600060028204905060018216806200041a57607f821691505b60208210811415620004315762000430620003d2565b5b50919050565b611ccb80620004476000396000f3fe6080604052600436106100dd5760003560e01c806370a082311161007f578063b88d4fde11610059578063b88d4fde14610297578063c87b56dd146102b3578063e985e9c5146102f0578063f851a4401461032d576100dd565b806370a082311461020657806395d89b4114610243578063a22cb4651461026e576100dd565b806323b872dd116100bb57806323b872dd1461016657806342842e0e146101825780636352211e1461019e5780636c0360eb146101db576100dd565b806306fdde03146100e2578063081812fc1461010d578063095ea7b31461014a575b600080fd5b3480156100ee57600080fd5b506100f7610358565b604051610104919061113f565b60405180910390f35b34801561011957600080fd5b50610134600480360381019061012f91906111a1565b6103ea565b604051610141919061120f565b60405180910390f35b610164600480360381019061015f9190611256565b610427565b005b610180600480360381019061017b9190611296565b61057f565b005b61019c60048036038101906101979190611296565b61058f565b005b3480156101aa57600080fd5b506101c560048036038101906101c091906111a1565b6105af565b6040516101d2919061120f565b60405180910390f35b3480156101e757600080fd5b506101f0610661565b6040516101fd919061113f565b60405180910390f35b34801561021257600080fd5b5061022d600480360381019061022891906112e9565b6106f3565b60405161023a9190611325565b60405180910390f35b34801561024f57600080fd5b506102586107ab565b604051610265919061113f565b60405180910390f35b34801561027a57600080fd5b5061029560048036038101906102909190611378565b61083d565b005b6102b160048036038101906102ac919061141d565b6109a9565b005b3480156102bf57600080fd5b506102da60048036038101906102d591906111a1565b610a00565b6040516102e7919061113f565b60405180910390f35b3480156102fc57600080fd5b50610317600480360381019061031291906114a5565b610a9f565b60405161032491906114f4565b60405180910390f35b34801561033957600080fd5b50610342610b33565b60405161034f919061120f565b60405180910390f35b6060600080546103679061153e565b80601f01602080910402602001604051908101604052809291908181526020018280546103939061153e565b80156103e05780601f106103b5576101008083540402835291602001916103e0565b820191906000526020600020905b8154815290600101906020018083116103c357829003601f168201915b5050505050905090565b60006006600083815260200190815260200160002060009054906101000a900473ffffffffffffffffffffffffffffffffffffffff169050919050565b60006005600083815260200190815260200160002060009054906101000a900473ffffffffffffffffffffffffffffffffffffffff1690508073ffffffffffffffffffffffffffffffffffffffff163373ffffffffffffffffffffffffffffffffffffffff16146104cd576040517f08c379a00000000000000000000000000000000000000000000000000000000081526004016104c4906115e2565b60405180910390fd5b826006600084815260200190815260200160002060006101000a81548173ffffffffffffffffffffffffffffffffffffffff021916908373ffffffffffffffffffffffffffffffffffffffff160217905550818373ffffffffffffffffffffffffffffffffffffffff163373ffffffffffffffffffffffffffffffffffffffff167f8c5be1e5ebec7d5bd14f71427d1e84f3dd0314c0f7b2291e5b200ac8c7c3b92560405160405180910390a4505050565b61058a838383610b59565b505050565b6105aa83838360405180602001604052806000815250610ed3565b505050565b6000806005600084815260200190815260200160002060009054906101000a900473ffffffffffffffffffffffffffffffffffffffff169050600073ffffffffffffffffffffffffffffffffffffffff168173ffffffffffffffffffffffffffffffffffffffff161415610658576040517f08c379a000000000000000000000000000000000000000000000000000000000815260040161064f90611674565b60405180910390fd5b80915050919050565b6060600380546106709061153e565b80601f016020809104026020016040519081016040528092919081815260200182805461069c9061153e565b80156106e95780601f106106be576101008083540402835291602001916106e9565b820191906000526020600020905b8154815290600101906020018083116106cc57829003601f168201915b5050505050905090565b60008073ffffffffffffffffffffffffffffffffffffffff168273ffffffffffffffffffffffffffffffffffffffff161415610764576040517f08c379a000000000000000000000000000000000000000000000000000000000815260040161075b90611706565b60405180910390fd5b600460008373ffffffffffffffffffffffffffffffffffffffff1673ffffffffffffffffffffffffffffffffffffffff168152602001908152602001600020549050919050565b6060600180546107ba9061153e565b80601f01602080910402602001604051908101604052809291908181526020018280546107e69061153e565b80156108335780601f1061080857610100808354040283529160200191610833565b820191906000526020600020905b81548152906001019060200180831161081657829003601f168201915b5050505050905090565b8173ffffffffffffffffffffffffffffffffffffffff163373ffffffffffffffffffffffffffffffffffffffff1614156108ac576040517f08c379a00000000000000000000000000000000000000000000000000000000081526004016108a390611798565b60405180910390fd5b80600760003373ffffffffffffffffffffffffffffffffffffffff1673ffffffffffffffffffffffffffffffffffffffff16815260200190815260200160002060008473ffffffffffffffffffffffffffffffffffffffff1673ffffffffffffffffffffffffffffffffffffffff16815260200190815260200160002060006101000a81548160ff0219169083151502179055508173ffffffffffffffffffffffffffffffffffffffff163373ffffffffffffffffffffffffffffffffffffffff167f17307eab39ab6107e8899845ad3d59bd9653f200f220920489ca2b5937696c318360405161099d91906114f4565b60405180910390a35050565b6109f985858585858080601f016020809104026020016040519081016040528093929190818152602001838380828437600081840152601f19601f82011690508083019250505050505050610ed3565b5050505050565b6060610a0b82611017565b610a4a576040517f08c379a0000000000000000000000000000000000000000000000000000000008152600401610a419061182a565b60405180910390fd5b6000610a54610661565b90506000815111610a745760405180602001604052806000815250610a97565b8083604051602001610a879291906118f3565b6040516020818303038152906040525b915050919050565b6000600760008473ffffffffffffffffffffffffffffffffffffffff1673ffffffffffffffffffffffffffffffffffffffff16815260200190815260200160002060008373ffffffffffffffffffffffffffffffffffffffff1673ffffffffffffffffffffffffffffffffffffffff16815260200190815260200160002060009054906101000a900460ff16905092915050565b600260009054906101000a900473ffffffffffffffffffffffffffffffffffffffff1681565b8060006005600083815260200190815260200160002060009054906101000a900473ffffffffffffffffffffffffffffffffffffffff1690503373ffffffffffffffffffffffffffffffffffffffff168173ffffffffffffffffffffffffffffffffffffffff161480610c2a57503373ffffffffffffffffffffffffffffffffffffffff166006600084815260200190815260200160002060009054906101000a900473ffffffffffffffffffffffffffffffffffffffff1673ffffffffffffffffffffffffffffffffffffffff16145b80610cc2575060011515600760008373ffffffffffffffffffffffffffffffffffffffff1673ffffffffffffffffffffffffffffffffffffffff16815260200190815260200160002060003373ffffffffffffffffffffffffffffffffffffffff1673ffffffffffffffffffffffffffffffffffffffff16815260200190815260200160002060009054906101000a900460ff161515145b610d01576040517f08c379a0000000000000000000000000000000000000000000000000000000008152600401610cf890611972565b60405180910390fd5b600073ffffffffffffffffffffffffffffffffffffffff168473ffffffffffffffffffffffffffffffffffffffff161415610d71576040517f08c379a0000000000000000000000000000000000000000000000000000000008152600401610d6890611a04565b60405180910390fd5b6001600460008773ffffffffffffffffffffffffffffffffffffffff1673ffffffffffffffffffffffffffffffffffffffff1681526020019081526020016000206000828254610dc19190611a53565b925050819055506001600460008673ffffffffffffffffffffffffffffffffffffffff1673ffffffffffffffffffffffffffffffffffffffff1681526020019081526020016000206000828254610e189190611a87565b92505081905550836005600085815260200190815260200160002060006101000a81548173ffffffffffffffffffffffffffffffffffffffff021916908373ffffffffffffffffffffffffffffffffffffffff160217905550828473ffffffffffffffffffffffffffffffffffffffff168673ffffffffffffffffffffffffffffffffffffffff167fddf252ad1be2c89b69c2b068fc378daa952ba7f163c4a11628f55a4df523b3ef60405160405180910390a45050505050565b610ede848484610b59565b610efd8373ffffffffffffffffffffffffffffffffffffffff16611083565b156110115760008373ffffffffffffffffffffffffffffffffffffffff1663150b7a02338786866040518563ffffffff1660e01b8152600401610f439493929190611b32565b6020604051808303816000875af1158015610f62573d6000803e3d6000fd5b505050506040513d601f19601f82011682018060405250810190610f869190611bd6565b905063150b7a0260e01b7bffffffffffffffffffffffffffffffffffffffffffffffffffffffff1916817bffffffffffffffffffffffffffffffffffffffffffffffffffffffff19161461100f576040517f08c379a000000000000000000000000000000000000000000000000000000000815260040161100690611c75565b60405180910390fd5b505b50505050565b60008073ffffffffffffffffffffffffffffffffffffffff166005600084815260200190815260200160002060009054906101000a900473ffffffffffffffffffffffffffffffffffffffff1673ffffffffffffffffffffffffffffffffffffffff1614159050919050565b6000808273ffffffffffffffffffffffffffffffffffffffff163b119050919050565b600081519050919050565b600082825260208201905092915050565b60005b838110156110e05780820151818401526020810190506110c5565b838111156110ef576000848401525b50505050565b6000601f19601f8301169050919050565b6000611111826110a6565b61111b81856110b1565b935061112b8185602086016110c2565b611134816110f5565b840191505092915050565b600060208201905081810360008301526111598184611106565b905092915050565b600080fd5b600080fd5b6000819050919050565b61117e8161116b565b811461118957600080fd5b50565b60008135905061119b81611175565b92915050565b6000602082840312156111b7576111b6611161565b5b60006111c58482850161118c565b91505092915050565b600073ffffffffffffffffffffffffffffffffffffffff82169050919050565b60006111f9826111ce565b9050919050565b611209816111ee565b82525050565b60006020820190506112246000830184611200565b92915050565b611233816111ee565b811461123e57600080fd5b50565b6000813590506112508161122a565b92915050565b6000806040838503121561126d5761126c611161565b5b600061127b85828601611241565b925050602061128c8582860161118c565b9150509250929050565b6000806000606084860312156112af576112ae611161565b5b60006112bd86828701611241565b93505060206112ce86828701611241565b92505060406112df8682870161118c565b9150509250925092565b6000602082840312156112ff576112fe611161565b5b600061130d84828501611241565b91505092915050565b61131f8161116b565b82525050565b600060208201905061133a6000830184611316565b92915050565b60008115159050919050565b61135581611340565b811461136057600080fd5b50565b6000813590506113728161134c565b92915050565b6000806040838503121561138f5761138e611161565b5b600061139d85828601611241565b92505060206113ae85828601611363565b9150509250929050565b600080fd5b600080fd5b600080fd5b60008083601f8401126113dd576113dc6113b8565b5b8235905067ffffffffffffffff8111156113fa576113f96113bd565b5b602083019150836001820283011115611416576114156113c2565b5b9250929050565b60008060008060006080868803121561143957611438611161565b5b600061144788828901611241565b955050602061145888828901611241565b94505060406114698882890161118c565b935050606086013567ffffffffffffffff81111561148a57611489611166565b5b611496888289016113c7565b92509250509295509295909350565b600080604083850312156114bc576114bb611161565b5b60006114ca85828601611241565b92505060206114db85828601611241565b9150509250929050565b6114ee81611340565b82525050565b600060208201905061150960008301846114e5565b92915050565b7f4e487b7100000000000000000000000000000000000000000000000000000000600052602260045260246000fd5b6000600282049050600182168061155657607f821691505b6020821081141561156a5761156961150f565b5b50919050565b7f6f6e6c79206f776e6572206f66207468697320746f6b656e2063616e2061707060008201527f726f766500000000000000000000000000000000000000000000000000000000602082015250565b60006115cc6024836110b1565b91506115d782611570565b604082019050919050565b600060208201905081810360008301526115fb816115bf565b9050919050565b7f4552433732313a206f776e657220717565727920666f72206e6f6e657869737460008201527f656e7420746f6b656e0000000000000000000000000000000000000000000000602082015250565b600061165e6029836110b1565b915061166982611602565b604082019050919050565b6000602082019050818103600083015261168d81611651565b9050919050565b7f4552433732313a2062616c616e636520717565727920666f7220746865207a6560008201527f726f206164647265737300000000000000000000000000000000000000000000602082015250565b60006116f0602a836110b1565b91506116fb82611694565b604082019050919050565b6000602082019050818103600083015261171f816116e3565b9050919050565b7f43616e206e6f7420736574206f776e2061646472657373206173206f7065726160008201527f746f720000000000000000000000000000000000000000000000000000000000602082015250565b60006117826023836110b1565b915061178d82611726565b604082019050919050565b600060208201905081810360008301526117b181611775565b9050919050565b7f4552433732314d657461646174613a2055524920717565727920666f72206e6f60008201527f6e6578697374656e7420746f6b656e0000000000000000000000000000000000602082015250565b6000611814602f836110b1565b915061181f826117b8565b604082019050919050565b6000602082019050818103600083015261184381611807565b9050919050565b600081905092915050565b6000611860826110a6565b61186a818561184a565b935061187a8185602086016110c2565b80840191505092915050565b7f2f00000000000000000000000000000000000000000000000000000000000000600082015250565b60006118bc60018361184a565b91506118c782611886565b600182019050919050565b6000819050919050565b6118ed6118e88261116b565b6118d2565b82525050565b60006118ff8285611855565b915061190a826118af565b915061191682846118dc565b6020820191508190509392505050565b7f4e6f7420617574686f72697a656420746f207472616e7366657220546f6b656e600082015250565b600061195c6020836110b1565b915061196782611926565b602082019050919050565b6000602082019050818103600083015261198b8161194f565b9050919050565b7f4552433732313a207472616e7366657220746f20746865207a65726f2061646460008201527f7265737300000000000000000000000000000000000000000000000000000000602082015250565b60006119ee6024836110b1565b91506119f982611992565b604082019050919050565b60006020820190508181036000830152611a1d816119e1565b9050919050565b7f4e487b7100000000000000000000000000000000000000000000000000000000600052601160045260246000fd5b6000611a5e8261116b565b9150611a698361116b565b925082821015611a7c57611a7b611a24565b5b828203905092915050565b6000611a928261116b565b9150611a9d8361116b565b9250827fffffffffffffffffffffffffffffffffffffffffffffffffffffffffffffffff03821115611ad257611ad1611a24565b5b828201905092915050565b600081519050919050565b600082825260208201905092915050565b6000611b0482611add565b611b0e8185611ae8565b9350611b1e8185602086016110c2565b611b27816110f5565b840191505092915050565b6000608082019050611b476000830187611200565b611b546020830186611200565b611b616040830185611316565b8181036060830152611b738184611af9565b905095945050505050565b60007fffffffff0000000000000000000000000000000000000000000000000000000082169050919050565b611bb381611b7e565b8114611bbe57600080fd5b50565b600081519050611bd081611baa565b92915050565b600060208284031215611bec57611beb611161565b5b6000611bfa84828501611bc1565b91505092915050565b7f526563697069656e7420436f6e74726163742063616e206e6f742068616e646c60008201527f652045524337323120546f6b656e730000000000000000000000000000000000602082015250565b6000611c5f602f836110b1565b9150611c6a82611c03565b604082019050919050565b60006020820190508181036000830152611c8e81611c52565b905091905056fea2646970667358221220ac6f922ee77f71f4b1b43f7b9231dc597a26bbd52dd09cd52c2d21a6053434e764736f6c634300080a0033",
  "immutableReferences": {},
  "source": "// SPDX-License-Identifier: MIT\r\npragma solidity ^0.8.0;\r\nimport \"@openzeppelin/contracts/utils/Address.sol\";\r\n\r\n\r\ninterface IERC721 /* is ERC165 */ {\r\n    /// @dev This emits when ownership of any NFT changes by any mechanism.\r\n    ///  This event emits when NFTs are created (`from` == 0) and destroyed\r\n    ///  (`to` == 0). Exception: during contract creation, any number of NFTs\r\n    ///  may be created and assigned without emitting Transfer. At the time of\r\n    ///  any transfer, the approved address for that NFT (if any) is reset to none.\r\n    event Transfer(address indexed _from, address indexed _to, uint256 indexed _tokenId);\r\n\r\n    /// @dev This emits when the approved address for an NFT is changed or\r\n    ///  reaffirmed. The zero address indicates there is no approved address.\r\n    ///  When a Transfer event emits, this also indicates that the approved\r\n    ///  address for that NFT (if any) is reset to none.\r\n    event Approval(address indexed _owner, address indexed _approved, uint256 indexed _tokenId);\r\n\r\n    /// @dev This emits when an operator is enabled or disabled for an owner.\r\n    ///  The operator can manage all NFTs of the owner.\r\n    event ApprovalForAll(address indexed _owner, address indexed _operator, bool _approved);\r\n\r\n    /// @notice Count all NFTs assigned to an owner\r\n    /// @dev NFTs assigned to the zero address are considered invalid, and this\r\n    ///  function throws for queries about the zero address.\r\n    /// @param _owner An address for whom to query the balance\r\n    /// @return The number of NFTs owned by `_owner`, possibly zero\r\n    function balanceOf(address _owner) external view returns (uint256);\r\n\r\n    /// @notice Find the owner of an NFT\r\n    /// @dev NFTs assigned to zero address are considered invalid, and queries\r\n    ///  about them do throw.\r\n    /// @param _tokenId The identifier for an NFT\r\n    /// @return The address of the owner of the NFT\r\n    function ownerOf(uint256 _tokenId) external view returns (address);\r\n\r\n    /// @notice Transfers the ownership of an NFT from one address to another address\r\n    /// @dev Throws unless `msg.sender` is the current owner, an authorized\r\n    ///  operator, or the approved address for this NFT. Throws if `_from` is\r\n    ///  not the current owner. Throws if `_to` is the zero address. Throws if\r\n    ///  `_tokenId` is not a valid NFT. When transfer is complete, this function\r\n    ///  checks if `_to` is a smart contract (code size > 0). If so, it calls\r\n    ///  `onERC721Received` on `_to` and throws if the return value is not\r\n    ///  `bytes4(keccak256(\"onERC721Received(address,address,uint256,bytes)\"))`.\r\n    /// @param _from The current owner of the NFT\r\n    /// @param _to The new owner\r\n    /// @param _tokenId The NFT to transfer\r\n    /// @param data Additional data with no specified format, sent in call to `_to`\r\n    function safeTransferFrom(address _from, address _to, uint256 _tokenId, bytes memory data) external payable;\r\n\r\n    /// @notice Transfers the ownership of an NFT from one address to another address\r\n    /// @dev This works identically to the other function with an extra data parameter,\r\n    ///  except this function just sets data to \"\".\r\n    /// @param _from The current owner of the NFT\r\n    /// @param _to The new owner\r\n    /// @param _tokenId The NFT to transfer\r\n    function safeTransferFrom(address _from, address _to, uint256 _tokenId) external payable;\r\n\r\n    /// @notice Transfer ownership of an NFT -- THE CALLER IS RESPONSIBLE\r\n    ///  TO CONFIRM THAT `_to` IS CAPABLE OF RECEIVING NFTS OR ELSE\r\n    ///  THEY MAY BE PERMANENTLY LOST\r\n    /// @dev Throws unless `msg.sender` is the current owner, an authorized\r\n    ///  operator, or the approved address for this NFT. Throws if `_from` is\r\n    ///  not the current owner. Throws if `_to` is the zero address. Throws if\r\n    ///  `_tokenId` is not a valid NFT.\r\n    /// @param _from The current owner of the NFT\r\n    /// @param _to The new owner\r\n    /// @param _tokenId The NFT to transfer\r\n    function transferFrom(address _from, address _to, uint256 _tokenId) external payable;\r\n\r\n    /// @notice Change or reaffirm the approved address for an NFT\r\n    /// @dev The zero address indicates there is no approved address.\r\n    ///  Throws unless `msg.sender` is the current NFT owner, or an authorized\r\n    ///  operator of the current owner.\r\n    /// @param _approved The new approved NFT controller\r\n    /// @param _tokenId The NFT to approve\r\n    function approve(address _approved, uint256 _tokenId) external payable;\r\n\r\n    /// @notice Enable or disable approval for a third party (\"operator\") to manage\r\n    ///  all of `msg.sender`'s assets\r\n    /// @dev Emits the ApprovalForAll event. The contract MUST allow\r\n    ///  multiple operators per owner.\r\n    /// @param _operator Address to add to the set of authorized operators\r\n    /// @param _approved True if the operator is approved, false to revoke approval\r\n    function setApprovalForAll(address _operator, bool _approved) external;\r\n\r\n    /// @notice Get the approved address for a single NFT\r\n    /// @dev Throws if `_tokenId` is not a valid NFT.\r\n    /// @param _tokenId The NFT to find the approved address for\r\n    /// @return The approved address for this NFT, or the zero address if there is none\r\n    function getApproved(uint256 _tokenId) external view returns (address);\r\n\r\n    /// @notice Query if an address is an authorized operator for another address\r\n    /// @param _owner The address that owns the NFTs\r\n    /// @param _operator The address that acts on behalf of the owner\r\n    /// @return True if `_operator` is an approved operator for `_owner`, false otherwise\r\n    function isApprovedForAll(address _owner, address _operator) external view returns (bool);\r\n}\r\n\r\ninterface IERC165 {\r\n    /// @notice Query if a contract implements an interface\r\n    /// @param interfaceID The interface identifier, as specified in ERC-165\r\n    /// @dev Interface identification is specified in ERC-165. This function\r\n    ///  uses less than 30,000 gas.\r\n    /// @return `true` if the contract implements `interfaceID` and\r\n    ///  `interfaceID` is not 0xffffffff, `false` otherwise\r\n    function supportsInterface(bytes4 interfaceID) external view returns (bool);\r\n}\r\n\r\ninterface IERC721Receiver {\r\n    /**\r\n     * @dev Whenever an {IERC721} `tokenId` token is transferred to this contract via {IERC721-safeTransferFrom}\r\n     * by `operator` from `from`, this function is called.\r\n     *\r\n     * It must return its Solidity selector to confirm the token transfer.\r\n     * If any other value is returned or the interface is not implemented by the recipient, the transfer will be reverted.\r\n     *\r\n     * The selector can be obtained in Solidity with `IERC721Receiver.onERC721Received.selector`.\r\n     */\r\n    function onERC721Received(\r\n        address operator,\r\n        address from,\r\n        uint256 tokenId,\r\n        bytes calldata data\r\n    ) external returns (bytes4);\r\n}\r\n\r\n\r\n\r\ncontract ERC721Token is IERC721 {\r\n // Token name\r\n    string private _name;\r\n\r\n    // Token symbol\r\n    string private _symbol;\r\n    address public admin;\r\n    string private _tokenBaseURI;\r\n\r\n  using Address for address;\r\n\r\n  bytes4 internal constant MAGIC_ON_ERC721_RECEIVED = 0x150b7a02;\r\n\r\n  mapping(address => uint256) private _balances;\r\n  mapping(uint256 => address) private _owners;\r\n  mapping(uint256 => address) private _tokenApprovals;\r\n  \r\n  //first address is the owner of tokens, second is the operator\r\n  mapping(address => mapping(address => bool)) private __operatorApprovals;\r\n\r\n\r\n  constructor(string memory name_, string memory symbol_, string memory tokenBaseURI_) {\r\n    _name = name_;\r\n    _symbol = symbol_;\r\n    _tokenBaseURI = tokenBaseURI_;\r\n    admin = msg.sender;\r\n  }\r\n\r\n  function name() external view returns (string memory) {\r\n      return _name;\r\n  }\r\n\r\n  /**\r\n    * @dev See {IERC721Metadata-symbol}.\r\n    */\r\n  function symbol() external view returns (string memory) {\r\n      return _symbol;\r\n  }\r\n\r\n  function baseURI() public view returns(string memory)  {\r\n      return _tokenBaseURI;\r\n  }\r\n\r\n  function tokenURI(uint _tokenId) external view returns(string memory){\r\n    require(_exists(_tokenId), \"ERC721Metadata: URI query for nonexistent token\");\r\n    string memory _baseURI = baseURI();\r\n    return (bytes(_baseURI).length> 0) ? string(abi.encodePacked(_baseURI,\"/\",_tokenId)) : \"\" ;\r\n  }\r\n\r\n  function _mint(uint256 _tokenId, address _owner) internal {\r\n    require(_owner != address(0), \"Zero address minting not allowed\");\r\n    require(!_exists(_tokenId), \"ERC721: token already minted\");\r\n\r\n    _balances[_owner] ++;\r\n    _owners[_tokenId] = _owner;\r\n    emit Transfer(address(0), _owner, _tokenId);\r\n  }\r\n\r\n  function balanceOf(address _owner) external view override returns (uint256){\r\n    require(_owner != address(0), \"ERC721: balance query for the zero address\");\r\n    return _balances[_owner];\r\n  }\r\n\r\n  function ownerOf(uint256 _tokenId) public view override returns  (address){    \r\n    address owner = _owners[_tokenId];\r\n    require(owner != address(0),\"ERC721: owner query for nonexistent token\");\r\n    return owner;\r\n  }\r\n\r\n  function approve(address _approved, uint256 _tokenId) external payable override {\r\n    address owner = _owners[_tokenId];\r\n    require(msg.sender == owner, \"only owner of this token can approve\");\r\n    _tokenApprovals[_tokenId] = _approved;\r\n    emit Approval(msg.sender, _approved, _tokenId);\r\n  }\r\n\r\n  function setApprovalForAll(address _operator, bool _approved) external override {\r\n    require(msg.sender != _operator, \"Can not set own address as operator\");\r\n    __operatorApprovals[msg.sender][_operator] = _approved;\r\n    emit ApprovalForAll(msg.sender, _operator, _approved);\r\n  }\r\n\r\n  function isApprovedForAll(address _owner, address _operator) external view override returns (bool) {\r\n    return __operatorApprovals[_owner][_operator];\r\n  }\r\n\r\n  function getApproved(uint256 _tokenId) external view override returns(address) {\r\n   return _tokenApprovals[_tokenId];\r\n  }\r\n\r\n  function transferFrom(address _from, address _to, uint256 _tokenId) external payable override {\r\n    _transfer(_from, _to, _tokenId);\r\n  }\r\n\r\n  function safeTransferFrom(address _from, address _to, uint256 _tokenId) external payable override {\r\n    _safeTransferFrom(_from, _to, _tokenId,\"\");\r\n  }\r\n\r\n function safeTransferFrom(address _from, address _to, uint256 _tokenId, bytes calldata data) external payable override {\r\n   _safeTransferFrom(_from, _to, _tokenId, data);\r\n }\r\n\r\n function _safeTransferFrom(address _from, address _to, uint256 _tokenId, bytes memory data) internal {\r\n    _transfer(_from, _to, _tokenId);\r\n\r\n    //check if _to is a smart contract address\r\n    if(_to.isContract()){\r\n      bytes4 retVal = IERC721Receiver(_to).onERC721Received(msg.sender, _from, _tokenId, data);\r\n      require(retVal == MAGIC_ON_ERC721_RECEIVED,'Recipient Contract can not handle ERC721 Tokens');\r\n    }\r\n }\r\n\r\n  function _transfer(address _from, address _to, uint256 _tokenId) internal canTransfer(_tokenId) {\r\n      \r\n      require(_to != address(0), \"ERC721: transfer to the zero address\");\r\n      _balances[_from] -=1;\r\n      _balances[_to] += 1;\r\n      _owners[_tokenId] = _to;\r\n      emit Transfer(_from, _to, _tokenId);\r\n  }\r\n\r\n  modifier canTransfer(uint256 _tokenId) {\r\n    address owner = _owners[_tokenId];\r\n    require(owner == msg.sender \r\n              || _tokenApprovals[_tokenId]== msg.sender\r\n              || __operatorApprovals[owner][msg.sender] == true,\r\n              \"Not authorized to transfer Token\");\r\n    _;\r\n  }\r\n\r\n  function _exists(uint256 tokenId) internal view returns (bool) {\r\n      return _owners[tokenId] != address(0);\r\n  }\r\n}",
  "sourcePath": "C:\\Sandip@IBM\\BlockChainDev\\CryptoKitties\\contracts\\ERC721Token.sol",
  "compiler": {
    "name": "solc",
    "version": "0.8.10+commit.fc410830.Emscripten.clang"
  },
  "schemaVersion": "3.4.3",
  "updatedAt": "2022-04-02T08:34:56.778Z",
  "devdoc": {
    "kind": "dev",
    "methods": {
      "approve(address,uint256)": {
        "details": "The zero address indicates there is no approved address.  Throws unless `msg.sender` is the current NFT owner, or an authorized  operator of the current owner.",
        "params": {
          "_approved": "The new approved NFT controller",
          "_tokenId": "The NFT to approve"
        }
      },
      "balanceOf(address)": {
        "details": "NFTs assigned to the zero address are considered invalid, and this  function throws for queries about the zero address.",
        "params": {
          "_owner": "An address for whom to query the balance"
        },
        "returns": {
          "_0": "The number of NFTs owned by `_owner`, possibly zero"
        }
      },
      "getApproved(uint256)": {
        "details": "Throws if `_tokenId` is not a valid NFT.",
        "params": {
          "_tokenId": "The NFT to find the approved address for"
        },
        "returns": {
          "_0": "The approved address for this NFT, or the zero address if there is none"
        }
      },
      "isApprovedForAll(address,address)": {
        "params": {
          "_operator": "The address that acts on behalf of the owner",
          "_owner": "The address that owns the NFTs"
        },
        "returns": {
          "_0": "True if `_operator` is an approved operator for `_owner`, false otherwise"
        }
      },
      "ownerOf(uint256)": {
        "details": "NFTs assigned to zero address are considered invalid, and queries  about them do throw.",
        "params": {
          "_tokenId": "The identifier for an NFT"
        },
        "returns": {
          "_0": "The address of the owner of the NFT"
        }
      },
      "safeTransferFrom(address,address,uint256)": {
        "details": "This works identically to the other function with an extra data parameter,  except this function just sets data to \"\".",
        "params": {
          "_from": "The current owner of the NFT",
          "_to": "The new owner",
          "_tokenId": "The NFT to transfer"
        }
      },
      "safeTransferFrom(address,address,uint256,bytes)": {
        "details": "Throws unless `msg.sender` is the current owner, an authorized  operator, or the approved address for this NFT. Throws if `_from` is  not the current owner. Throws if `_to` is the zero address. Throws if  `_tokenId` is not a valid NFT. When transfer is complete, this function  checks if `_to` is a smart contract (code size > 0). If so, it calls  `onERC721Received` on `_to` and throws if the return value is not  `bytes4(keccak256(\"onERC721Received(address,address,uint256,bytes)\"))`.",
        "params": {
          "_from": "The current owner of the NFT",
          "_to": "The new owner",
          "_tokenId": "The NFT to transfer",
          "data": "Additional data with no specified format, sent in call to `_to`"
        }
      },
      "setApprovalForAll(address,bool)": {
        "details": "Emits the ApprovalForAll event. The contract MUST allow  multiple operators per owner.",
        "params": {
          "_approved": "True if the operator is approved, false to revoke approval",
          "_operator": "Address to add to the set of authorized operators"
        }
      },
      "symbol()": {
        "details": "See {IERC721Metadata-symbol}."
      },
      "transferFrom(address,address,uint256)": {
        "details": "Throws unless `msg.sender` is the current owner, an authorized  operator, or the approved address for this NFT. Throws if `_from` is  not the current owner. Throws if `_to` is the zero address. Throws if  `_tokenId` is not a valid NFT.",
        "params": {
          "_from": "The current owner of the NFT",
          "_to": "The new owner",
          "_tokenId": "The NFT to transfer"
        }
      }
    },
    "version": 1
  },
  "userdoc": {
    "kind": "user",
    "methods": {
      "approve(address,uint256)": {
        "notice": "Change or reaffirm the approved address for an NFT"
      },
      "balanceOf(address)": {
        "notice": "Count all NFTs assigned to an owner"
      },
      "getApproved(uint256)": {
        "notice": "Get the approved address for a single NFT"
      },
      "isApprovedForAll(address,address)": {
        "notice": "Query if an address is an authorized operator for another address"
      },
      "ownerOf(uint256)": {
        "notice": "Find the owner of an NFT"
      },
      "safeTransferFrom(address,address,uint256)": {
        "notice": "Transfers the ownership of an NFT from one address to another address"
      },
      "safeTransferFrom(address,address,uint256,bytes)": {
        "notice": "Transfers the ownership of an NFT from one address to another address"
      },
      "setApprovalForAll(address,bool)": {
        "notice": "Enable or disable approval for a third party (\"operator\") to manage  all of `msg.sender`'s assets"
      },
      "transferFrom(address,address,uint256)": {
        "notice": "Transfer ownership of an NFT -- THE CALLER IS RESPONSIBLE  TO CONFIRM THAT `_to` IS CAPABLE OF RECEIVING NFTS OR ELSE  THEY MAY BE PERMANENTLY LOST"
      }
    },
    "version": 1
  }
}